{
  "contractName": "KickstartFactory",
  "abi": [
    {
      "inputs": [
        {
          "internalType": "uint256",
          "name": "minimum",
          "type": "uint256"
        }
      ],
      "name": "createCampaign",
      "outputs": [],
      "stateMutability": "nonpayable",
      "type": "function"
    },
    {
      "inputs": [],
      "name": "getDeployedCampaigns",
      "outputs": [
        {
          "internalType": "address[]",
          "name": "",
          "type": "address[]"
        }
      ],
      "stateMutability": "view",
      "type": "function",
      "constant": true
    }
  ],
  "bytecode": "0x608060405234801561001057600080fd5b50611a0c806100206000396000f3fe608060405234801561001057600080fd5b5060043610610053576000357c0100000000000000000000000000000000000000000000000000000000900480634acb9d4f14610058578063a3303a7514610076575b600080fd5b610060610092565b60405161006d91906103a1565b60405180910390f35b610090600480360381019061008b91906103fe565b610120565b005b6060603380548060200260200160405190810160405280929190818152602001828054801561011657602002820191906000526020600020905b8160009054906101000a900473ffffffffffffffffffffffffffffffffffffffff1673ffffffffffffffffffffffffffffffffffffffff16815260200190600101908083116100cc575b5050505050905090565b60026001541415610166576040517f08c379a000000000000000000000000000000000000000000000000000000000815260040161015d90610488565b60405180910390fd5b6002600181905550600060405161017c906102a4565b604051809103906000f080158015610198573d6000803e3d6000fd5b50905060008190508173ffffffffffffffffffffffffffffffffffffffff1663da35a26f84336040518363ffffffff167c01000000000000000000000000000000000000000000000000000000000281526004016101f79291906104d8565b600060405180830381600087803b15801561021157600080fd5b505af1158015610225573d6000803e3d6000fd5b505050506102328161023e565b50506001808190555050565b6033819080600181540180825580915050600190039060005260206000200160009091909190916101000a81548173ffffffffffffffffffffffffffffffffffffffff021916908373ffffffffffffffffffffffffffffffffffffffff16021790555050565b6114d58061050283390190565b600081519050919050565b600082825260208201905092915050565b6000819050602082019050919050565b600073ffffffffffffffffffffffffffffffffffffffff82169050919050565b6000610308826102dd565b9050919050565b610318816102fd565b82525050565b600061032a838361030f565b60208301905092915050565b6000602082019050919050565b600061034e826102b1565b61035881856102bc565b9350610363836102cd565b8060005b8381101561039457815161037b888261031e565b975061038683610336565b925050600181019050610367565b5085935050505092915050565b600060208201905081810360008301526103bb8184610343565b905092915050565b600080fd5b6000819050919050565b6103db816103c8565b81146103e657600080fd5b50565b6000813590506103f8816103d2565b92915050565b600060208284031215610414576104136103c3565b5b6000610422848285016103e9565b91505092915050565b600082825260208201905092915050565b7f5265656e7472616e637947756172643a207265656e7472616e742063616c6c00600082015250565b6000610472601f8361042b565b915061047d8261043c565b602082019050919050565b600060208201905081810360008301526104a181610465565b9050919050565b6104b1816103c8565b82525050565b60006104c2826102dd565b9050919050565b6104d2816104b7565b82525050565b60006040820190506104ed60008301856104a8565b6104fa60208301846104c9565b939250505056fe608060405234801561001057600080fd5b506114b5806100206000396000f3fe6080604052600436106100c4576000357c01000000000000000000000000000000000000000000000000000000009004806382fde0931161008157806382fde093146101f55780638a9cfd5514610220578063937e09b114610249578063d7bb99ba14610274578063d7d1bbdb1461027e578063da35a26f146102a7576100c4565b806303441006146100c95780630a144391146100f25780633410452a1461012f5780634051ddac1461015a578063481c6a751461018957806381d12c58146101b4575b600080fd5b3480156100d557600080fd5b506100f060048036038101906100eb9190610c6b565b6102d0565b005b3480156100fe57600080fd5b5061011960048036038101906101149190610cf6565b610449565b6040516101269190610d3e565b60405180910390f35b34801561013b57600080fd5b50610144610469565b6040516101519190610d68565b60405180910390f35b34801561016657600080fd5b5061016f610473565b604051610180959493929190610d92565b60405180910390f35b34801561019557600080fd5b5061019e6104d0565b6040516101ab9190610e06565b60405180910390f35b3480156101c057600080fd5b506101db60048036038101906101d69190610c6b565b6104f6565b6040516101ec959493929190610eba565b60405180910390f35b34801561020157600080fd5b5061020a6105e1565b6040516102179190610d68565b60405180910390f35b34801561022c57600080fd5b5061024760048036038101906102429190611075565b6105e7565b005b34801561025557600080fd5b5061025e6106ae565b60405161026b9190610d68565b60405180910390f35b61027c6106b4565b005b34801561028a57600080fd5b506102a560048036038101906102a09190610c6b565b6107b2565b005b3480156102b357600080fd5b506102ce60048036038101906102c991906110e4565b6108da565b005b60026001541415610316576040517f08c379a000000000000000000000000000000000000000000000000000000000815260040161030d90611170565b60405180910390fd5b6002600181905550603660009054906101000a900473ffffffffffffffffffffffffffffffffffffffff1673ffffffffffffffffffffffffffffffffffffffff163373ffffffffffffffffffffffffffffffffffffffff161461037857600080fd5b6000603360008381526020019081526020016000209050600260385461039e91906111ee565b8160030154116103e3576040517f08c379a00000000000000000000000000000000000000000000000000000000081526004016103da90611291565b60405180910390fd5b8060020160149054906101000a900460ff1615610435576040517f08c379a000000000000000000000000000000000000000000000000000000000815260040161042c906112fd565b60405180910390fd5b61043e816108f0565b506001808190555050565b60346020528060005260406000206000915054906101000a900460ff1681565b6000603554905090565b60008060008060006037543073ffffffffffffffffffffffffffffffffffffffff1631603554603854603660009054906101000a900473ffffffffffffffffffffffffffffffffffffffff16945094509450945094509091929394565b603660009054906101000a900473ffffffffffffffffffffffffffffffffffffffff1681565b60336020528060005260406000206000915090508060000180546105199061134c565b80601f01602080910402602001604051908101604052809291908181526020018280546105459061134c565b80156105925780601f1061056757610100808354040283529160200191610592565b820191906000526020600020905b81548152906001019060200180831161057557829003601f168201915b5050505050908060010154908060020160009054906101000a900473ffffffffffffffffffffffffffffffffffffffff16908060020160149054906101000a900460ff16908060030154905085565b60385481565b6002600154141561062d576040517f08c379a000000000000000000000000000000000000000000000000000000000815260040161062490611170565b60405180910390fd5b6002600181905550603660009054906101000a900473ffffffffffffffffffffffffffffffffffffffff1673ffffffffffffffffffffffffffffffffffffffff163373ffffffffffffffffffffffffffffffffffffffff161461068f57600080fd5b61069a83838361097f565b6106a2610a2a565b60018081905550505050565b60375481565b600260015414156106fa576040517f08c379a00000000000000000000000000000000000000000000000000000000081526004016106f190611170565b60405180910390fd5b60026001819055506037543411610746576040517f08c379a000000000000000000000000000000000000000000000000000000000815260040161073d90611416565b60405180910390fd5b603460003373ffffffffffffffffffffffffffffffffffffffff1673ffffffffffffffffffffffffffffffffffffffff16815260200190815260200160002060009054906101000a900460ff166107a9576107a033610a44565b6107a8610a9f565b5b60018081905550565b600260015414156107f8576040517f08c379a00000000000000000000000000000000000000000000000000000000081526004016107ef90611170565b60405180910390fd5b60026001819055506000603360008381526020019081526020016000209050603460003373ffffffffffffffffffffffffffffffffffffffff1673ffffffffffffffffffffffffffffffffffffffff16815260200190815260200160002060009054906101000a900460ff1661086d57600080fd5b8060040160003373ffffffffffffffffffffffffffffffffffffffff1673ffffffffffffffffffffffffffffffffffffffff16815260200190815260200160002060009054906101000a900460ff16156108c657600080fd5b6108cf81610ab9565b506001808190555050565b6108e381610b30565b6108ec82610b74565b5050565b8060020160009054906101000a900473ffffffffffffffffffffffffffffffffffffffff1673ffffffffffffffffffffffffffffffffffffffff166108fc82600101549081150290604051600060405180830381858888f1935050505015801561095e573d6000803e3d6000fd5b5060018160020160146101000a81548160ff02191690831515021790555050565b60006033600060355481526020019081526020016000209050838160000190805190602001906109b0929190610b7e565b50828160010181905550818160020160006101000a81548173ffffffffffffffffffffffffffffffffffffffff021916908373ffffffffffffffffffffffffffffffffffffffff16021790555060008160020160146101000a81548160ff0219169083151502179055506000816003018190555050505050565b60356000815480929190610a3d90611436565b9190505550565b6001603460008373ffffffffffffffffffffffffffffffffffffffff1673ffffffffffffffffffffffffffffffffffffffff16815260200190815260200160002060006101000a81548160ff02191690831515021790555050565b60386000815480929190610ab290611436565b9190505550565b60018160040160003373ffffffffffffffffffffffffffffffffffffffff1673ffffffffffffffffffffffffffffffffffffffff16815260200190815260200160002060006101000a81548160ff021916908315150217905550806003016000815480929190610b2890611436565b919050555050565b80603660006101000a81548173ffffffffffffffffffffffffffffffffffffffff021916908373ffffffffffffffffffffffffffffffffffffffff16021790555050565b8060378190555050565b828054610b8a9061134c565b90600052602060002090601f016020900481019282610bac5760008555610bf3565b82601f10610bc557805160ff1916838001178555610bf3565b82800160010185558215610bf3579182015b82811115610bf2578251825591602001919060010190610bd7565b5b509050610c009190610c04565b5090565b5b80821115610c1d576000816000905550600101610c05565b5090565b6000604051905090565b600080fd5b600080fd5b6000819050919050565b610c4881610c35565b8114610c5357600080fd5b50565b600081359050610c6581610c3f565b92915050565b600060208284031215610c8157610c80610c2b565b5b6000610c8f84828501610c56565b91505092915050565b600073ffffffffffffffffffffffffffffffffffffffff82169050919050565b6000610cc382610c98565b9050919050565b610cd381610cb8565b8114610cde57600080fd5b50565b600081359050610cf081610cca565b92915050565b600060208284031215610d0c57610d0b610c2b565b5b6000610d1a84828501610ce1565b91505092915050565b60008115159050919050565b610d3881610d23565b82525050565b6000602082019050610d536000830184610d2f565b92915050565b610d6281610c35565b82525050565b6000602082019050610d7d6000830184610d59565b92915050565b610d8c81610cb8565b82525050565b600060a082019050610da76000830188610d59565b610db46020830187610d59565b610dc16040830186610d59565b610dce6060830185610d59565b610ddb6080830184610d83565b9695505050505050565b6000610df082610c98565b9050919050565b610e0081610de5565b82525050565b6000602082019050610e1b6000830184610df7565b92915050565b600081519050919050565b600082825260208201905092915050565b60005b83811015610e5b578082015181840152602081019050610e40565b83811115610e6a576000848401525b50505050565b6000601f19601f8301169050919050565b6000610e8c82610e21565b610e968185610e2c565b9350610ea6818560208601610e3d565b610eaf81610e70565b840191505092915050565b600060a0820190508181036000830152610ed48188610e81565b9050610ee36020830187610d59565b610ef06040830186610df7565b610efd6060830185610d2f565b610f0a6080830184610d59565b9695505050505050565b600080fd5b600080fd5b7f4e487b7100000000000000000000000000000000000000000000000000000000600052604160045260246000fd5b610f5682610e70565b810181811067ffffffffffffffff82111715610f7557610f74610f1e565b5b80604052505050565b6000610f88610c21565b9050610f948282610f4d565b919050565b600067ffffffffffffffff821115610fb457610fb3610f1e565b5b610fbd82610e70565b9050602081019050919050565b82818337600083830152505050565b6000610fec610fe784610f99565b610f7e565b90508281526020810184848401111561100857611007610f19565b5b611013848285610fca565b509392505050565b600082601f8301126110305761102f610f14565b5b8135611040848260208601610fd9565b91505092915050565b61105281610de5565b811461105d57600080fd5b50565b60008135905061106f81611049565b92915050565b60008060006060848603121561108e5761108d610c2b565b5b600084013567ffffffffffffffff8111156110ac576110ab610c30565b5b6110b88682870161101b565b93505060206110c986828701610c56565b92505060406110da86828701611060565b9150509250925092565b600080604083850312156110fb576110fa610c2b565b5b600061110985828601610c56565b925050602061111a85828601611060565b9150509250929050565b7f5265656e7472616e637947756172643a207265656e7472616e742063616c6c00600082015250565b600061115a601f83610e2c565b915061116582611124565b602082019050919050565b600060208201905081810360008301526111898161114d565b9050919050565b7f4e487b7100000000000000000000000000000000000000000000000000000000600052601260045260246000fd5b7f4e487b7100000000000000000000000000000000000000000000000000000000600052601160045260246000fd5b60006111f982610c35565b915061120483610c35565b92508261121457611213611190565b5b828204905092915050565b7f4d6f726520617070726f7665727320617265206e656564656420666f7220666960008201527f6e616c697a696e67207468697320726571756573740000000000000000000000602082015250565b600061127b603583610e2c565b91506112868261121f565b604082019050919050565b600060208201905081810360008301526112aa8161126e565b9050919050565b7f5265717565737420697320616c726561647920636f6d706c6574656400000000600082015250565b60006112e7601c83610e2c565b91506112f2826112b1565b602082019050919050565b60006020820190508181036000830152611316816112da565b9050919050565b7f4e487b7100000000000000000000000000000000000000000000000000000000600052602260045260246000fd5b6000600282049050600182168061136457607f821691505b602082108114156113785761137761131d565b5b50919050565b7f546f20636f6e7472696275746520796f75206e65656420746f2061746c65617360008201527f7420706179206d696e696d756d436f6e747269627574696f6e20247b6d696e6960208201527f6d756d436f6e747269627574696f6e7d00000000000000000000000000000000604082015250565b6000611400605083610e2c565b915061140b8261137e565b606082019050919050565b6000602082019050818103600083015261142f816113f3565b9050919050565b600061144182610c35565b91507fffffffffffffffffffffffffffffffffffffffffffffffffffffffffffffffff821415611474576114736111bf565b5b60018201905091905056fea2646970667358221220c888c90e0b94f8bfa8c18937be70471c0e44ec52f6ec55ee44b397e6404066e064736f6c634300080a0033a2646970667358221220368039d1efe5c473cd51cb4c4561df4a5427e114a3a6cfed933f953abe827a5364736f6c634300080a0033",
  "immutableReferences": {},
  "source": "// SPDX-License-Identifier: GPL-3.0\n\npragma solidity >=0.5.2 <0.9.0;\n\nimport '@openzeppelin/contracts-upgradeable/security/ReentrancyGuardUpgradeable.sol';\nimport \"./Kickstart.sol\";\n\ncontract KickstartFactory is ReentrancyGuardUpgradeable {\n    address[] private deployedCampaigns;\n    \n    // Create a new campaign\n    function createCampaign(uint minimum) public nonReentrant {\n        Kickstart kickstart = new Kickstart();\n        address newCampaign = address(kickstart);\n\n        kickstart.initialize(minimum, payable(msg.sender));\n        \n        // Deployed campaigns setter\n        addDeployedCampaign(newCampaign);\n    }\n    \n    // Get all created campaigns\n    function getDeployedCampaigns() public view returns (address[] memory){\n        return deployedCampaigns;\n    }\n\n    /** Setter functions */\n    function addDeployedCampaign(address newCampaign) private {\n        deployedCampaigns.push(newCampaign);\n    }\n}\n\n// let factory = await KickstartFactory.deployed()\n// let factory2 = await KickstartFactoryV2.deployed()\n// let kickstart = await Kickstart.deployed('0x11924C6967680124814fe7bFE0EB4a352CEB9Ef6')\n// factory.createCampaign(100)\n// factory.getDeployedCampaigns()\n// Factory address 0x098aD42601c3C538383b26017a9eB0A5d48473eA\n//                 0x098aD42601c3C538383b26017a9eB0A5d48473eA\n// Kickstart address 0x6146c3E633Fc77D2466cd6ccD9de1Aa2eB5cD451\n\n// truffle compile\n// truffle migrate",
  "sourcePath": "/Users/apple/Desktop/Ethereum/upgradeablecontract/contracts/KickstartFactory.sol",
  "compiler": {
    "name": "solc",
    "version": "0.8.10+commit.fc410830.Emscripten.clang"
  },
  "schemaVersion": "3.4.4",
  "updatedAt": "2022-01-08T14:09:57.411Z",
  "networkType": "ethereum",
  "devdoc": {
    "kind": "dev",
    "methods": {},
    "version": 1
  },
  "userdoc": {
    "kind": "user",
    "methods": {},
    "version": 1
  }
}